:020000040000FA
:100000000C9453000C947A040C9453040C947B00CD
:100010000C947B000C947B000C947B000C947B0074
:100020000C947B000C947B000C947B000C947B0064
:100030000C947B000C947B000C947B000C947B0054
:100040000C9409040C947B000C94D7030C94B1031A
:100050000C947B000C947B000C947B000C947B0034
:100060000C947B000C947B0000000000250028000D
:100070002B0000000000240027002A0004040404D0
:100080000404040402020202020203030303030342
:10009000010204081020408001020408102001021F
:1000A00004081020480511241FBECFEFD8E0DEBFA2
:1000B000CDBF11E0A0E0B1E0E4ECFFE002C00590AC
:1000C0000D92AC33B107D9F722E0ACE3B1E001C047
:1000D0001D92A632B207E1F710E0C3E5D0E004C0FC
:1000E0002197FE010E94DA07C235D107C9F70E94A5
:1000F000A1040C94E0070C940000AF92BF92CF9241
:10010000DF92EF92FF920F931F93CF93DF936C01D7
:100110007B018B01040F151FEB015E01AE18BF08B8
:10012000C017D10759F06991D601ED91FC9101906A
:10013000F081E02DC6010995892B79F7C501DF9182
:10014000CF911F910F91FF90EF90DF90CF90BF90D4
:10015000AF900895FC01538D448D252F30E0842FFE
:1001600090E0821B930B541710F0CF9608950197DF
:100170000895FC01918D828D981761F0A28DAE0FCC
:10018000BF2FB11D5D968C91928D9F5F9F73928F53
:1001900090E008958FEF9FEF0895FC01918D828D7F
:1001A000981731F0828DE80FF11D858D90E008954C
:1001B0008FEF9FEF0895FC01918D228D892F90E0A4
:1001C000805C9F4F821B91098F739927089589E85E
:1001D00091E00E94DB0021E0892B09F420E0822FCE
:1001E000089580E090E0892B29F00E94E7008111BA
:1001F0000C9400000895FC01A48DA80FB92FB11D27
:10020000A35ABF4F2C91848D90E001968F7399274C
:10021000848FA689B7892C93A089B1898C9183702A
:1002200080648C93938D848D981306C00288F38923
:10023000E02D80818F7D80830895EF92FF920F9350
:100240001F93CF93DF93EC0181E0888F9B8D8C8D82
:1002500098131AC0E889F989808185FF15C09FB776
:10026000F894EE89FF896083E889F9898081837039
:10027000806480839FBF81E090E0DF91CF911F91E8
:100280000F91FF90EF900895F62E0B8D10E00F5F09
:100290001F4F0F731127E02E8C8D8E110CC00FB6DF
:1002A00007FCFACFE889F989808185FFF5CFCE0177
:1002B0000E94FB00F1CFEB8DEC0FFD2FF11DE35AF7
:1002C000FF4FF0829FB7F8940B8FEA89FB898081FA
:1002D0008062CFCFCF93DF93EC01888D8823B9F074
:1002E000AA89BB89E889F9898C9185FD03C0808141
:1002F00086FD0DC00FB607FCF7CF8C9185FFF2CFBE
:10030000808185FFEDCFCE010E94FB00E9CFDF9118
:10031000CF9108953FB7F89480918501909186011F
:10032000A0918701B091880126B5A89B05C02F3FF9
:1003300019F00196A11DB11D3FBFBA2FA92F982F0B
:100340008827BC01CD01620F711D811D911D42E006
:10035000660F771F881F991F4A95D1F70895089552
:10036000CF92DF92EF92FF920F931F93CF93DF9381
:10037000C0917A01D0917B018E01000F111F085BA3
:100380001E4FF80160817181072E000C880B990BBC
:100390000E9491069B01AC0160917C0170917D01EE
:1003A00080917E0190917F010E9475056B017C0117
:1003B00060914401709145018091460190914701FF
:1003C0000E945906F80171836083072E000C880B88
:1003D000990B0E949106A70196010E9476056093F1
:1003E0007C0170937D0180937E0190937F01219623
:1003F000C931D1059CF4D0937B01C0937A0120E0F0
:1004000030E048EC51E40E94E705DF91CF911F9165
:100410000F91FF90EF90DF90CF90089510927B01A5
:1004200010927A01ECCF9093010180930001E9E6EC
:10043000F0E0808183608083E89A08950E948A01B9
:100440006093400170934101809342019093430176
:1004500089E593E00C941302FC0101900020E9F778
:100460003197AF01481B590BBC0189E891E00C940E
:100470007D008F929F92AF92BF920F931F93CF9365
:10048000DF93CDB7DEB7A1970FB6F894DEBF0FBEEE
:10049000CDBF19A2423008F44AE08E010F5D1F4F14
:1004A000842E912CB12CA12CA50194010E94B80797
:1004B000E62FB901CA01EA30F4F4E05DD801EE9309
:1004C0008D01232B242B252B79F790E080E01097CA
:1004D00019F0CD010E942C02A1960FB6F894DEBF50
:1004E0000FBECDBFDF91CF911F910F91BF90AF9005
:1004F0009F908F900895E95CE1CF4F925F926F9249
:100500007F928F929F92AF92BF92CF92DF92EF92A3
:10051000FF920F931F93CF936B017C01742EAC015C
:100520009B010E94B307882399F086E191E0CF9167
:100530001F910F91FF90EF90DF90CF90BF90AF9001
:100540009F908F907F906F905F904F900C942C02B3
:1005500046015701E894B7F82FEF3FEF4FE75FE709
:10056000C501B4010E94B30781110DC02FEF3FEF09
:100570004FE75FE7C501B4010E94E20518161CF4BD
:100580008AE191E0D4CF2FEF3FEF4FE75FE4C7015F
:10059000B6010E94410718161CF48EE191E0C7CF06
:1005A0002FEF3FEF4FE75FECC701B6010E94E20576
:1005B00087FDF3CF20E030E0A901C701B6010E941A
:1005C000E20510E000E087FF0AC06DE289E891E0F3
:1005D0000E941D018C01F7FAF094F7F8F094C0E046
:1005E00060E070E080E09FE37C1641F020E030E0C6
:1005F00040E251E40E94E705CF5FF6CFA7019601E4
:100600000E9476052B013C010E9460064B015C01B3
:100610004AE00E9439027C01E00EF11ECC23C1F1B8
:10062000C501B4010E948F069B01AC01C301B20158
:100630000E9475054B015C016EE289E891E00E9421
:100640001D01E80EF91EC15018F120E030E040E233
:1006500051E4C501B4010E9446072B013C010E94F0
:1006600060064B01B12CA12C4AE0C501B4010E94E7
:100670003902E80EF91EC501B4010E948F069B01E4
:10068000AC01C301B2010E9475054B015C01DBCFD7
:10069000C701CF911F910F91FF90EF90DF90CF9006
:1006A000BF90AF909F908F907F906F905F904F9092
:1006B00008950F931F930E948A01009140011091A9
:1006C00041012091420130914301601B710B820B6B
:1006D000930B0E948F0660934401709345018093B1
:1006E00046019093470182E291E00E942C020E9411
:1006F000B00142E00E947D028CE291E00E942C0257
:100700000E94B0019B01AC0160E070E080E89FE3D3
:100710000E94E70520E034E244E759E40E944607DE
:1007200060933C0170933D0180933E0190933F01A3
:100730008FE291E00E942C0260913C0170913D019A
:1007400080913E0190913F0142E00E947D028CE247
:1007500091E00E942C028EE192E01F910F910C9487
:1007600013021F920F920FB60F9211242F933F93F3
:100770004F935F936F937F938F939F93AF93BF93A9
:10078000EF93FF9389E891E00E94FB00FF91EF91C6
:10079000BF91AF919F918F917F916F915F914F9199
:1007A0003F912F910F900FBE0F901F9018951F92A1
:1007B0000F920FB60F9211242F938F939F93EF9365
:1007C000FF93E0919901F0919A018081E0919F015E
:1007D000F091A00182FD1BC090818091A2018F5FEA
:1007E0008F732091A301821741F0E091A201F0E004
:1007F000E757FE4F958F8093A201FF91EF919F9154
:100800008F912F910F900FBE0F901F9018958081A0
:10081000F4CF1F920F920FB60F9211242F933F9394
:100820008F939F93AF93BF938091810190918201A9
:10083000A0918301B09184013091800123E0230FC6
:100840002D3758F50196A11DB11D2093800180938D
:10085000810190938201A0938301B09384018091E0
:10086000850190918601A0918701B0918801019640
:10087000A11DB11D8093850190938601A0938701EE
:10088000B0938801BF91AF919F918F913F912F912C
:100890000F900FBE0F901F90189526E8230F029619
:1008A000A11DB11DD2CF1F920F920FB60F9211242E
:1008B0002F933F934F935F936F937F938F939F9368
:1008C000AF93BF93EF93FF93E0910201F091030187
:1008D0000995FF91EF91BF91AF919F918F917F917A
:1008E0006F915F914F913F912F910F900FBE0F909D
:1008F0001F9018951F920F920FB60F9211242F93ED
:100900003F934F935F936F937F938F939F93AF9397
:10091000BF93EF93FF93E0910001F09101010995DE
:10092000FF91EF91BF91AF919F918F917F916F91C7
:100930005F914F913F912F910F900FBE0F901F909D
:100940001895789484B5826084BD84B5816084BD37
:1009500085B5826085BD85B5816085BD80916E005D
:10096000816080936E00109281008091810082608E
:1009700080938100809181008160809381008091CB
:1009800080008160809380008091B10084608093BA
:10099000B1008091B00081608093B00080917A00B6
:1009A000846080937A0080917A00826080937A00DC
:1009B00080917A00816080937A0080917A008068CB
:1009C00080937A001092C100E0919901F0919A0110
:1009D00082E08083E0919501F09196011082E09190
:1009E0009701F091980180E180831092A101E0913C
:1009F0009D01F0919E0186E08083E0919B01F09142
:100A00009C01808180618083E0919B01F0919C0139
:100A1000808188608083E0919B01F0919C018081BE
:100A200080688083E0919B01F0919C0180818F7DA3
:100A30008083E2E9F0E02491EEE7F0E084918823FE
:100A4000C1F090E0880F991FFC01EE58FF4FC5914F
:100A5000D491FC01E859FF4FA591B4919FB7F89448
:100A60008881E22FE0958E2388838C91E823EC9394
:100A70009FBF8EE192E00E941302C0E0D0E0209779
:100A8000F1F30E94E7008823D1F30E940000F7CF22
:100A9000E9E8F1E01382128288EE93E0A0E0B0E092
:100AA00084839583A683B78388E091E091838083D4
:100AB00085EC90E09587848784EC90E09787868723
:100AC00080EC90E0918B808B81EC90E0938B828B1B
:100AD00082EC90E0958B848B86EC90E0978B868BF4
:100AE000118E128E138E148E08955058BB27AA278C
:100AF0000E948D050C9407070E94F90638F00E94A9
:100B0000000720F039F49F3F19F426F40C94F60600
:100B10000EF4E095E7FB0C94F006E92F0E9418070D
:100B200058F3BA17620773078407950720F079F422
:100B3000A6F50C943A070EF4E0950B2EBA2FA02DD3
:100B40000B01B90190010C01CA01A0011124FF277A
:100B5000591B99F0593F50F4503E68F11A16F04075
:100B6000A22F232F342F4427585FF3CF4695379574
:100B70002795A795F0405395C9F77EF41F16BA0B39
:100B8000620B730B840BBAF09150A1F0FF0FBB1FE7
:100B9000661F771F881FC2F70EC0BA0F621F731F30
:100BA000841F48F4879577956795B795F7959E3F8D
:100BB00008F0B0CF9395880F08F09927EE0F97951E
:100BC000879508950E94CC0608F481E008950E945C
:100BD000FB050C9407070E94000758F00E94F906D5
:100BE00040F029F45F3F29F00C94F00651110C9469
:100BF0003B070C94F6060E94180768F39923B1F39B
:100C0000552391F3951B550BBB27AA276217730732
:100C1000840738F09F5F5F4F220F331F441FAA1FC6
:100C2000A9F335D00E2E3AF0E0E832D09150504082
:100C3000E695001CCAF72BD0FE2F29D0660F771F30
:100C4000881FBB1F261737074807AB07B0E809F016
:100C5000BB0B802DBF01FF2793585F4F3AF09E3F9B
:100C6000510578F00C94F0060C943B075F3FE4F3D9
:100C7000983ED4F3869577956795B795F7959F5FDE
:100C8000C9F7880F911D9695879597F90895E1E02A
:100C9000660F771F881FBB1F621773078407BA0789
:100CA00020F0621B730B840BBA0BEE1F88F7E095E4
:100CB00008950E9460066894B1110C943B07089552
:100CC0000E94200788F09F5798F0B92F9927B751B5
:100CD000B0F0E1F0660F771F881F991F1AF0BA95E0
:100CE000C9F714C0B13091F00E943A07B1E00895FD
:100CF0000C943A07672F782F8827B85F39F0B93FEF
:100D0000CCF3869577956795B395D9F73EF4909592
:100D10008095709561957F4F8F4F9F4F0895E89410
:100D200009C097FB3EF490958095709561957F4F33
:100D30008F4F9F4F9923A9F0F92F96E9BB279395E1
:100D4000F695879577956795B795F111F8CFFAF4F1
:100D5000BB0F11F460FF1BC06F5F7F4F8F4F9F4F22
:100D600016C0882311F096E911C0772321F09EE880
:100D7000872F762F05C0662371F096E8862F70E0E6
:100D800060E02AF09A95660F771F881FDAF7880FC0
:100D90009695879597F90895990F0008550FAA0B16
:100DA000E0E8FEEF16161706E807F907C0F012167E
:100DB0001306E407F50798F0621B730B840B950B81
:100DC00039F40A2661F0232B242B252B21F40895D6
:100DD0000A2609F4A140A6958FEF811D811D089573
:100DE00097F99F6780E870E060E008959FEF80ECDE
:100DF000089500240A941616170618060906089581
:100E000000240A9412161306140605060895092EE6
:100E10000394000C11F4882352F0BB0F40F4BF2B55
:100E200011F460FF04C06F5F7F4F8F4F9F4F089595
:100E300057FD9058440F551F59F05F3F71F047958B
:100E4000880F97FB991F61F09F3F79F08795089570
:100E5000121613061406551FF2CF4695F1DF08C08F
:100E6000161617061806991FF1CF869571056105AC
:100E700008940895E894BB2766277727CB0197F954
:100E800008950E94CC0608F48FEF08950E94590738
:100E90000C9407070E94F90638F00E94000720F022
:100EA000952311F00C94F0060C94F60611240C9482
:100EB0003B070E94180770F3959FC1F3950F50E010
:100EC000551F629FF001729FBB27F00DB11D639FFC
:100ED000AA27F00DB11DAA1F649F6627B00DA11DA2
:100EE000661F829F2227B00DA11D621F739FB00D48
:100EF000A11D621F839FA00D611D221F749F3327B8
:100F0000A00D611D231F849F600D211D822F762F50
:100F10006A2F11249F5750409AF0F1F088234AF02D
:100F2000EE0FFF1FBB1F661F771F881F9150504099
:100F3000A9F79E3F510580F00C94F0060C943B07F6
:100F40005F3FE4F3983ED4F3869577956795B79520
:100F5000F795E7959F5FC1F7FE2B880F911D96953A
:100F6000879597F908950E94CC06880B990B0895F0
:100F7000A1E21A2EAA1BBB1BFD010DC0AA1FBB1F9D
:100F8000EE1FFF1FA217B307E407F50720F0A21B0F
:100F9000B30BE40BF50B661F771F881F991F1A947C
:100FA00069F760957095809590959B01AC01BD01A6
:100FB000CF010895EE0FFF1F0590F491E02D0994E5
:100FC000F894FFCFAF01AF01000000001D017D00CC
:100FD000AA006A01DB00B900CD006E616E00696E87
:100FE00066006F766600506572696F64203A200073
:100FF0000D0A004672657175656E6379203A2000AE
:107E0000112484B714BE81FFF0D085E080938100F7
:107E100082E08093C00088E18093C10086E0809377
:107E2000C20080E18093C4008EE0C9D0259A86E02C
:107E300020E33CEF91E0309385002093840096BBD3
:107E4000B09BFECF1D9AA8958150A9F7CC24DD24C4
:107E500088248394B5E0AB2EA1E19A2EF3E0BF2EE7
:107E6000A2D0813461F49FD0082FAFD0023811F036
:107E7000013811F484E001C083E08DD089C08234E0
:107E800011F484E103C0853419F485E0A6D080C0E4
:107E9000853579F488D0E82EFF2485D0082F10E0AE
:107EA000102F00270E291F29000F111F8ED06801E7
:107EB0006FC0863521F484E090D080E0DECF843638
:107EC00009F040C070D06FD0082F6DD080E0C81688
:107ED00080E7D80618F4F601B7BEE895C0E0D1E017
:107EE00062D089930C17E1F7F0E0CF16F0E7DF06D8
:107EF00018F0F601B7BEE89568D007B600FCFDCFD4
:107F0000A601A0E0B1E02C9130E011968C91119780
:107F100090E0982F8827822B932B1296FA010C0160
:107F200087BEE89511244E5F5F4FF1E0A038BF0790
:107F300051F7F601A7BEE89507B600FCFDCF97BE46
:107F4000E89526C08437B1F42ED02DD0F82E2BD052
:107F50003CD0F601EF2C8F010F5F1F4F84911BD097
:107F6000EA94F801C1F70894C11CD11CFA94CF0C13
:107F7000D11C0EC0853739F428D08EE10CD085E9AC
:107F80000AD08FE07ACF813511F488E018D01DD067
:107F900080E101D065CF982F8091C00085FFFCCF94
:107FA0009093C60008958091C00087FFFCCF809118
:107FB000C00084FD01C0A8958091C6000895E0E648
:107FC000F0E098E1908380830895EDDF803219F02E
:107FD00088E0F5DFFFCF84E1DECF1F93182FE3DFCA
:107FE0001150E9F7F2DF1F91089580E0E8DFEE27F6
:047FF000FF270994CA
:027FFE00040479
:00000001FF
